{
  "_format": "hh-sol-artifact-1",
  "contractName": "TagsRepo",
  "sourceName": "contracts/TagRepo.sol",
  "abi": [
    {
      "inputs": [
        {
          "internalType": "string",
          "name": "_seedPhrase",
          "type": "string"
        }
      ],
      "stateMutability": "nonpayable",
      "type": "constructor"
    },
    {
      "anonymous": false,
      "inputs": [
        {
          "indexed": true,
          "internalType": "address",
          "name": "owner",
          "type": "address"
        },
        {
          "indexed": true,
          "internalType": "address",
          "name": "approved",
          "type": "address"
        },
        {
          "indexed": true,
          "internalType": "uint256",
          "name": "tokenId",
          "type": "uint256"
        }
      ],
      "name": "Approval",
      "type": "event"
    },
    {
      "anonymous": false,
      "inputs": [
        {
          "indexed": true,
          "internalType": "address",
          "name": "owner",
          "type": "address"
        },
        {
          "indexed": true,
          "internalType": "address",
          "name": "operator",
          "type": "address"
        },
        {
          "indexed": false,
          "internalType": "bool",
          "name": "approved",
          "type": "bool"
        }
      ],
      "name": "ApprovalForAll",
      "type": "event"
    },
    {
      "anonymous": false,
      "inputs": [
        {
          "indexed": false,
          "internalType": "uint256",
          "name": "tagId",
          "type": "uint256"
        },
        {
          "indexed": false,
          "internalType": "string",
          "name": "tagUri",
          "type": "string"
        }
      ],
      "name": "TagCreated",
      "type": "event"
    },
    {
      "anonymous": false,
      "inputs": [
        {
          "indexed": true,
          "internalType": "address",
          "name": "from",
          "type": "address"
        },
        {
          "indexed": true,
          "internalType": "address",
          "name": "to",
          "type": "address"
        },
        {
          "indexed": true,
          "internalType": "uint256",
          "name": "tokenId",
          "type": "uint256"
        }
      ],
      "name": "Transfer",
      "type": "event"
    },
    {
      "inputs": [
        {
          "internalType": "address",
          "name": "to",
          "type": "address"
        },
        {
          "internalType": "uint256",
          "name": "tokenId",
          "type": "uint256"
        }
      ],
      "name": "approve",
      "outputs": [],
      "stateMutability": "nonpayable",
      "type": "function"
    },
    {
      "inputs": [
        {
          "internalType": "address",
          "name": "owner",
          "type": "address"
        }
      ],
      "name": "balanceOf",
      "outputs": [
        {
          "internalType": "uint256",
          "name": "",
          "type": "uint256"
        }
      ],
      "stateMutability": "view",
      "type": "function"
    },
    {
      "inputs": [
        {
          "internalType": "uint256",
          "name": "tokenId",
          "type": "uint256"
        }
      ],
      "name": "getApproved",
      "outputs": [
        {
          "internalType": "address",
          "name": "",
          "type": "address"
        }
      ],
      "stateMutability": "view",
      "type": "function"
    },
    {
      "inputs": [
        {
          "internalType": "address",
          "name": "owner",
          "type": "address"
        },
        {
          "internalType": "address",
          "name": "operator",
          "type": "address"
        }
      ],
      "name": "isApprovedForAll",
      "outputs": [
        {
          "internalType": "bool",
          "name": "",
          "type": "bool"
        }
      ],
      "stateMutability": "view",
      "type": "function"
    },
    {
      "inputs": [],
      "name": "name",
      "outputs": [
        {
          "internalType": "string",
          "name": "",
          "type": "string"
        }
      ],
      "stateMutability": "view",
      "type": "function"
    },
    {
      "inputs": [
        {
          "internalType": "address",
          "name": "operator",
          "type": "address"
        },
        {
          "internalType": "address",
          "name": "from",
          "type": "address"
        },
        {
          "internalType": "uint256",
          "name": "tokenId",
          "type": "uint256"
        },
        {
          "internalType": "bytes",
          "name": "data",
          "type": "bytes"
        }
      ],
      "name": "onERC721Received",
      "outputs": [
        {
          "internalType": "bytes4",
          "name": "",
          "type": "bytes4"
        }
      ],
      "stateMutability": "pure",
      "type": "function"
    },
    {
      "inputs": [
        {
          "internalType": "uint256",
          "name": "tokenId",
          "type": "uint256"
        }
      ],
      "name": "ownerOf",
      "outputs": [
        {
          "internalType": "address",
          "name": "",
          "type": "address"
        }
      ],
      "stateMutability": "view",
      "type": "function"
    },
    {
      "inputs": [
        {
          "internalType": "uint256",
          "name": "tokenId",
          "type": "uint256"
        }
      ],
      "name": "privateKey",
      "outputs": [
        {
          "internalType": "string",
          "name": "encryptionKey",
          "type": "string"
        }
      ],
      "stateMutability": "view",
      "type": "function"
    },
    {
      "inputs": [
        {
          "internalType": "address",
          "name": "from",
          "type": "address"
        },
        {
          "internalType": "address",
          "name": "to",
          "type": "address"
        },
        {
          "internalType": "uint256",
          "name": "tokenId",
          "type": "uint256"
        }
      ],
      "name": "safeTransferFrom",
      "outputs": [],
      "stateMutability": "nonpayable",
      "type": "function"
    },
    {
      "inputs": [
        {
          "internalType": "address",
          "name": "from",
          "type": "address"
        },
        {
          "internalType": "address",
          "name": "to",
          "type": "address"
        },
        {
          "internalType": "uint256",
          "name": "tokenId",
          "type": "uint256"
        },
        {
          "internalType": "bytes",
          "name": "data",
          "type": "bytes"
        }
      ],
      "name": "safeTransferFrom",
      "outputs": [],
      "stateMutability": "nonpayable",
      "type": "function"
    },
    {
      "inputs": [
        {
          "internalType": "address",
          "name": "operator",
          "type": "address"
        },
        {
          "internalType": "bool",
          "name": "approved",
          "type": "bool"
        }
      ],
      "name": "setApprovalForAll",
      "outputs": [],
      "stateMutability": "nonpayable",
      "type": "function"
    },
    {
      "inputs": [
        {
          "internalType": "bytes4",
          "name": "interfaceId",
          "type": "bytes4"
        }
      ],
      "name": "supportsInterface",
      "outputs": [
        {
          "internalType": "bool",
          "name": "",
          "type": "bool"
        }
      ],
      "stateMutability": "view",
      "type": "function"
    },
    {
      "inputs": [],
      "name": "symbol",
      "outputs": [
        {
          "internalType": "string",
          "name": "",
          "type": "string"
        }
      ],
      "stateMutability": "view",
      "type": "function"
    },
    {
      "inputs": [
        {
          "internalType": "string[]",
          "name": "tagUris",
          "type": "string[]"
        },
        {
          "internalType": "string[]",
          "name": "encryptionKeys",
          "type": "string[]"
        }
      ],
      "name": "tagMulti",
      "outputs": [
        {
          "internalType": "uint256[]",
          "name": "",
          "type": "uint256[]"
        }
      ],
      "stateMutability": "nonpayable",
      "type": "function"
    },
    {
      "inputs": [
        {
          "internalType": "string",
          "name": "tagUri",
          "type": "string"
        },
        {
          "internalType": "string",
          "name": "encryptionKey",
          "type": "string"
        }
      ],
      "name": "tagOne",
      "outputs": [
        {
          "internalType": "uint256",
          "name": "",
          "type": "uint256"
        }
      ],
      "stateMutability": "nonpayable",
      "type": "function"
    },
    {
      "inputs": [
        {
          "internalType": "uint256",
          "name": "tokenId",
          "type": "uint256"
        }
      ],
      "name": "tokenURI",
      "outputs": [
        {
          "internalType": "string",
          "name": "",
          "type": "string"
        }
      ],
      "stateMutability": "view",
      "type": "function"
    },
    {
      "inputs": [],
      "name": "totalTags",
      "outputs": [
        {
          "internalType": "uint256",
          "name": "",
          "type": "uint256"
        }
      ],
      "stateMutability": "view",
      "type": "function"
    },
    {
      "inputs": [
        {
          "internalType": "address",
          "name": "from",
          "type": "address"
        },
        {
          "internalType": "address",
          "name": "to",
          "type": "address"
        },
        {
          "internalType": "uint256",
          "name": "tokenId",
          "type": "uint256"
        }
      ],
      "name": "transferFrom",
      "outputs": [],
      "stateMutability": "nonpayable",
      "type": "function"
    }
  ],
  "bytecode": "0x60806040523480156200001157600080fd5b5060405162002d0338038062002d03833981810160405281019062000037919062000344565b6040518060400160405280600881526020017f416c7461736d69720000000000000000000000000000000000000000000000008152506040518060400160405280600381526020017f414c5400000000000000000000000000000000000000000000000000000000008152508160009080519060200190620000bb929190620000f7565b508060019080519060200190620000d4929190620000f7565b5050508060079080519060200190620000ef929190620000f7565b5050620003fa565b8280546200010590620003c4565b90600052602060002090601f01602090048101928262000129576000855562000175565b82601f106200014457805160ff191683800117855562000175565b8280016001018555821562000175579182015b828111156200017457825182559160200191906001019062000157565b5b50905062000184919062000188565b5090565b5b80821115620001a357600081600090555060010162000189565b5090565b6000604051905090565b600080fd5b600080fd5b600080fd5b600080fd5b6000601f19601f8301169050919050565b7f4e487b7100000000000000000000000000000000000000000000000000000000600052604160045260246000fd5b6200021082620001c5565b810181811067ffffffffffffffff82111715620002325762000231620001d6565b5b80604052505050565b600062000247620001a7565b905062000255828262000205565b919050565b600067ffffffffffffffff821115620002785762000277620001d6565b5b6200028382620001c5565b9050602081019050919050565b60005b83811015620002b057808201518184015260208101905062000293565b83811115620002c0576000848401525b50505050565b6000620002dd620002d7846200025a565b6200023b565b905082815260208101848484011115620002fc57620002fb620001c0565b5b6200030984828562000290565b509392505050565b600082601f830112620003295762000328620001bb565b5b81516200033b848260208601620002c6565b91505092915050565b6000602082840312156200035d576200035c620001b1565b5b600082015167ffffffffffffffff8111156200037e576200037d620001b6565b5b6200038c8482850162000311565b91505092915050565b7f4e487b7100000000000000000000000000000000000000000000000000000000600052602260045260246000fd5b60006002820490506001821680620003dd57607f821691505b60208210811415620003f457620003f362000395565b5b50919050565b6128f9806200040a6000396000f3fe608060405234801561001057600080fd5b50600436106101155760003560e01c806370a08231116100a2578063b88d4fde11610071578063b88d4fde14610304578063c87b56dd14610320578063de8f096814610350578063e8a6b79514610380578063e985e9c5146103b057610115565b806370a082311461026a57806395d89b411461029a578063a09ca87b146102b8578063a22cb465146102e857610115565b8063095ea7b3116100e9578063095ea7b3146101b6578063150b7a02146101d257806323b872dd1461020257806342842e0e1461021e5780636352211e1461023a57610115565b8062e9236f1461011a57806301ffc9a71461013857806306fdde0314610168578063081812fc14610186575b600080fd5b6101226103e0565b60405161012f9190611813565b60405180910390f35b610152600480360381019061014d919061189a565b6103f7565b60405161015f91906118e2565b60405180910390f35b6101706104d9565b60405161017d9190611996565b60405180910390f35b6101a0600480360381019061019b91906119e4565b61056b565b6040516101ad9190611a52565b60405180910390f35b6101d060048036038101906101cb9190611a99565b6105a8565b005b6101ec60048036038101906101e79190611c0e565b6105e3565b6040516101f99190611ca0565b60405180910390f35b61021c60048036038101906102179190611cbb565b6105f7565b005b61023860048036038101906102339190611cbb565b610632565b005b610254600480360381019061024f91906119e4565b61066d565b6040516102619190611a52565b60405180910390f35b610284600480360381019061027f9190611d0e565b6106f4565b6040516102919190611813565b60405180910390f35b6102a26107ac565b6040516102af9190611996565b60405180910390f35b6102d260048036038101906102cd91906119e4565b61083e565b6040516102df9190611996565b60405180910390f35b61030260048036038101906102fd9190611d67565b6108e3565b005b61031e60048036038101906103199190611c0e565b61091e565b005b61033a600480360381019061033591906119e4565b610959565b6040516103479190611996565b60405180910390f35b61036a60048036038101906103659190611f2e565b610a6c565b6040516103779190612064565b60405180910390f35b61039a60048036038101906103959190612086565b610cd6565b6040516103a79190611813565b60405180910390f35b6103ca60048036038101906103c591906120fe565b610e64565b6040516103d791906118e2565b60405180910390f35b60006009546008546103f2919061216d565b905090565b60007f80ac58cd000000000000000000000000000000000000000000000000000000007bffffffffffffffffffffffffffffffffffffffffffffffffffffffff1916827bffffffffffffffffffffffffffffffffffffffffffffffffffffffff191614806104c257507f5b5e139f000000000000000000000000000000000000000000000000000000007bffffffffffffffffffffffffffffffffffffffffffffffffffffffff1916827bffffffffffffffffffffffffffffffffffffffffffffffffffffffff1916145b806104d257506104d182610ea1565b5b9050919050565b6060600080546104e8906121d0565b80601f0160208091040260200160405190810160405280929190818152602001828054610514906121d0565b80156105615780601f1061053657610100808354040283529160200191610561565b820191906000526020600020905b81548152906001019060200180831161054457829003601f168201915b5050505050905090565b60006040517f08c379a000000000000000000000000000000000000000000000000000000000815260040161059f90612274565b60405180910390fd5b6040517f08c379a00000000000000000000000000000000000000000000000000000000081526004016105da90612274565b60405180910390fd5b600063150b7a0260e01b9050949350505050565b6040517f08c379a000000000000000000000000000000000000000000000000000000000815260040161062990612274565b60405180910390fd5b6040517f08c379a000000000000000000000000000000000000000000000000000000000815260040161066490612274565b60405180910390fd5b60008061067983610f0b565b9050600073ffffffffffffffffffffffffffffffffffffffff168173ffffffffffffffffffffffffffffffffffffffff1614156106eb576040517f08c379a00000000000000000000000000000000000000000000000000000000081526004016106e2906122e0565b60405180910390fd5b80915050919050565b60008073ffffffffffffffffffffffffffffffffffffffff168273ffffffffffffffffffffffffffffffffffffffff161415610765576040517f08c379a000000000000000000000000000000000000000000000000000000000815260040161075c90612372565b60405180910390fd5b600360008373ffffffffffffffffffffffffffffffffffffffff1673ffffffffffffffffffffffffffffffffffffffff168152602001908152602001600020549050919050565b6060600180546107bb906121d0565b80601f01602080910402602001604051908101604052809291908181526020018280546107e7906121d0565b80156108345780601f1061080957610100808354040283529160200191610834565b820191906000526020600020905b81548152906001019060200180831161081757829003601f168201915b5050505050905090565b6060600a6000838152602001908152602001600020805461085e906121d0565b80601f016020809104026020016040519081016040528092919081815260200182805461088a906121d0565b80156108d75780601f106108ac576101008083540402835291602001916108d7565b820191906000526020600020905b8154815290600101906020018083116108ba57829003601f168201915b50505050509050919050565b6040517f08c379a000000000000000000000000000000000000000000000000000000000815260040161091590612274565b60405180910390fd5b6040517f08c379a000000000000000000000000000000000000000000000000000000000815260040161095090612274565b60405180910390fd5b606061096482610f48565b6000600660008481526020019081526020016000208054610984906121d0565b80601f01602080910402602001604051908101604052809291908181526020018280546109b0906121d0565b80156109fd5780601f106109d2576101008083540402835291602001916109fd565b820191906000526020600020905b8154815290600101906020018083116109e057829003601f168201915b505050505090506000610a0e610f93565b9050600081511415610a24578192505050610a67565b600082511115610a59578082604051602001610a419291906123ce565b60405160208183030381529060405292505050610a67565b610a6284610faa565b925050505b919050565b60606000835167ffffffffffffffff811115610a8b57610a8a611ae3565b5b604051908082528060200260200182016040528015610ab95781602001602082028036833780820191505090505b50905060008060005b8651811015610cc9576001600854610ada91906123f2565b6008819055506007600854604051602001610af69291906124dd565b6040516020818303038152906040528051906020012092508260001c915060005b600073ffffffffffffffffffffffffffffffffffffffff16610b3884610f0b565b73ffffffffffffffffffffffffffffffffffffffff16141580610b5b5750600381105b15610bd2576001600854610b6f91906123f2565b6008819055506001600954610b8491906123f2565b6009819055506007600854604051602001610ba09291906124dd565b6040516020818303038152906040528051906020012093508360001c9250600181610bcb91906123f2565b9050610b17565b610bdc3084611012565b610c0083898481518110610bf357610bf261250d565b5b6020026020010151611030565b868281518110610c1357610c1261250d565b5b6020026020010151600a60008581526020019081526020016000209080519060200190610c41929190611757565b507fa62b8430fb03a4807cc4e7c959b55f81f5fdf521e4261f608939322c688509d283898481518110610c7757610c7661250d565b5b6020026020010151604051610c8d92919061253c565b60405180910390a182858381518110610ca957610ca861250d565b5b602002602001018181525050508080610cc19061256c565b915050610ac2565b5082935050505092915050565b60006001600854610ce791906123f2565b60088190555060006007600854604051602001610d059291906124dd565b60405160208183030381529060405280519060200120905060008160001c905060005b600073ffffffffffffffffffffffffffffffffffffffff16610d4983610f0b565b73ffffffffffffffffffffffffffffffffffffffff16141580610d6c5750600381105b15610de3576001600854610d8091906123f2565b6008819055506001600954610d9591906123f2565b6009819055506007600854604051602001610db19291906124dd565b6040516020818303038152906040528051906020012092508260001c9150600181610ddc91906123f2565b9050610d28565b610ded3083611012565b610df78287611030565b84600a60008481526020019081526020016000209080519060200190610e1e929190611757565b507fa62b8430fb03a4807cc4e7c959b55f81f5fdf521e4261f608939322c688509d28287604051610e5092919061253c565b60405180910390a181935050505092915050565b60006040517f08c379a0000000000000000000000000000000000000000000000000000000008152600401610e9890612274565b60405180910390fd5b60007f01ffc9a7000000000000000000000000000000000000000000000000000000007bffffffffffffffffffffffffffffffffffffffffffffffffffffffff1916827bffffffffffffffffffffffffffffffffffffffffffffffffffffffff1916149050919050565b60006002600083815260200190815260200160002060009054906101000a900473ffffffffffffffffffffffffffffffffffffffff169050919050565b610f51816110a4565b610f90576040517f08c379a0000000000000000000000000000000000000000000000000000000008152600401610f87906122e0565b60405180910390fd5b50565b606060405180602001604052806000815250905090565b6060610fb582610f48565b6000610fbf610f93565b90506000815111610fdf576040518060200160405280600081525061100a565b80610fe9846110e5565b604051602001610ffa9291906123ce565b6040516020818303038152906040525b915050919050565b61102c8282604051806020016040528060008152506111bd565b5050565b611039826110a4565b611078576040517f08c379a000000000000000000000000000000000000000000000000000000000815260040161106f90612627565b60405180910390fd5b8060066000848152602001908152602001600020908051906020019061109f929190611757565b505050565b60008073ffffffffffffffffffffffffffffffffffffffff166110c683610f0b565b73ffffffffffffffffffffffffffffffffffffffff1614159050919050565b6060600060016110f484611218565b01905060008167ffffffffffffffff81111561111357611112611ae3565b5b6040519080825280601f01601f1916602001820160405280156111455781602001600182028036833780820191505090505b509050600082602001820190505b6001156111b2578080600190039150507f3031323334353637383961626364656600000000000000000000000000000000600a86061a8153600a858161119c5761119b612647565b5b04945060008514156111ad576111b2565b611153565b819350505050919050565b6111c7838361136b565b6111d46000848484611589565b611213576040517f08c379a000000000000000000000000000000000000000000000000000000000815260040161120a906126e8565b60405180910390fd5b505050565b600080600090507a184f03e93ff9f4daa797ed6e38ed64bf6a1f0100000000000000008310611276577a184f03e93ff9f4daa797ed6e38ed64bf6a1f010000000000000000838161126c5761126b612647565b5b0492506040810190505b6d04ee2d6d415b85acef810000000083106112b3576d04ee2d6d415b85acef810000000083816112a9576112a8612647565b5b0492506020810190505b662386f26fc1000083106112e257662386f26fc1000083816112d8576112d7612647565b5b0492506010810190505b6305f5e100831061130b576305f5e100838161130157611300612647565b5b0492506008810190505b612710831061133057612710838161132657611325612647565b5b0492506004810190505b60648310611353576064838161134957611348612647565b5b0492506002810190505b600a8310611362576001810190505b80915050919050565b600073ffffffffffffffffffffffffffffffffffffffff168273ffffffffffffffffffffffffffffffffffffffff1614156113db576040517f08c379a00000000000000000000000000000000000000000000000000000000081526004016113d290612754565b60405180910390fd5b6113e4816110a4565b15611424576040517f08c379a000000000000000000000000000000000000000000000000000000000815260040161141b906127c0565b60405180910390fd5b611432600083836001611720565b61143b816110a4565b1561147b576040517f08c379a0000000000000000000000000000000000000000000000000000000008152600401611472906127c0565b60405180910390fd5b6001600360008473ffffffffffffffffffffffffffffffffffffffff1673ffffffffffffffffffffffffffffffffffffffff16815260200190815260200160002060008282540192505081905550816002600083815260200190815260200160002060006101000a81548173ffffffffffffffffffffffffffffffffffffffff021916908373ffffffffffffffffffffffffffffffffffffffff160217905550808273ffffffffffffffffffffffffffffffffffffffff16600073ffffffffffffffffffffffffffffffffffffffff167fddf252ad1be2c89b69c2b068fc378daa952ba7f163c4a11628f55a4df523b3ef60405160405180910390a4611585600083836001611726565b5050565b60006115aa8473ffffffffffffffffffffffffffffffffffffffff1661172c565b15611713578373ffffffffffffffffffffffffffffffffffffffff1663150b7a026115d361174f565b8786866040518563ffffffff1660e01b81526004016115f59493929190612835565b602060405180830381600087803b15801561160f57600080fd5b505af192505050801561164057506040513d601f19601f8201168201806040525081019061163d9190612896565b60015b6116c3573d8060008114611670576040519150601f19603f3d011682016040523d82523d6000602084013e611675565b606091505b506000815114156116bb576040517f08c379a00000000000000000000000000000000000000000000000000000000081526004016116b2906126e8565b60405180910390fd5b805181602001fd5b63150b7a0260e01b7bffffffffffffffffffffffffffffffffffffffffffffffffffffffff1916817bffffffffffffffffffffffffffffffffffffffffffffffffffffffff191614915050611718565b600190505b949350505050565b50505050565b50505050565b6000808273ffffffffffffffffffffffffffffffffffffffff163b119050919050565b600033905090565b828054611763906121d0565b90600052602060002090601f01602090048101928261178557600085556117cc565b82601f1061179e57805160ff19168380011785556117cc565b828001600101855582156117cc579182015b828111156117cb5782518255916020019190600101906117b0565b5b5090506117d991906117dd565b5090565b5b808211156117f65760008160009055506001016117de565b5090565b6000819050919050565b61180d816117fa565b82525050565b60006020820190506118286000830184611804565b92915050565b6000604051905090565b600080fd5b600080fd5b60007fffffffff0000000000000000000000000000000000000000000000000000000082169050919050565b61187781611842565b811461188257600080fd5b50565b6000813590506118948161186e565b92915050565b6000602082840312156118b0576118af611838565b5b60006118be84828501611885565b91505092915050565b60008115159050919050565b6118dc816118c7565b82525050565b60006020820190506118f760008301846118d3565b92915050565b600081519050919050565b600082825260208201905092915050565b60005b8381101561193757808201518184015260208101905061191c565b83811115611946576000848401525b50505050565b6000601f19601f8301169050919050565b6000611968826118fd565b6119728185611908565b9350611982818560208601611919565b61198b8161194c565b840191505092915050565b600060208201905081810360008301526119b0818461195d565b905092915050565b6119c1816117fa565b81146119cc57600080fd5b50565b6000813590506119de816119b8565b92915050565b6000602082840312156119fa576119f9611838565b5b6000611a08848285016119cf565b91505092915050565b600073ffffffffffffffffffffffffffffffffffffffff82169050919050565b6000611a3c82611a11565b9050919050565b611a4c81611a31565b82525050565b6000602082019050611a676000830184611a43565b92915050565b611a7681611a31565b8114611a8157600080fd5b50565b600081359050611a9381611a6d565b92915050565b60008060408385031215611ab057611aaf611838565b5b6000611abe85828601611a84565b9250506020611acf858286016119cf565b9150509250929050565b600080fd5b600080fd5b7f4e487b7100000000000000000000000000000000000000000000000000000000600052604160045260246000fd5b611b1b8261194c565b810181811067ffffffffffffffff82111715611b3a57611b39611ae3565b5b80604052505050565b6000611b4d61182e565b9050611b598282611b12565b919050565b600067ffffffffffffffff821115611b7957611b78611ae3565b5b611b828261194c565b9050602081019050919050565b82818337600083830152505050565b6000611bb1611bac84611b5e565b611b43565b905082815260208101848484011115611bcd57611bcc611ade565b5b611bd8848285611b8f565b509392505050565b600082601f830112611bf557611bf4611ad9565b5b8135611c05848260208601611b9e565b91505092915050565b60008060008060808587031215611c2857611c27611838565b5b6000611c3687828801611a84565b9450506020611c4787828801611a84565b9350506040611c58878288016119cf565b925050606085013567ffffffffffffffff811115611c7957611c7861183d565b5b611c8587828801611be0565b91505092959194509250565b611c9a81611842565b82525050565b6000602082019050611cb56000830184611c91565b92915050565b600080600060608486031215611cd457611cd3611838565b5b6000611ce286828701611a84565b9350506020611cf386828701611a84565b9250506040611d04868287016119cf565b9150509250925092565b600060208284031215611d2457611d23611838565b5b6000611d3284828501611a84565b91505092915050565b611d44816118c7565b8114611d4f57600080fd5b50565b600081359050611d6181611d3b565b92915050565b60008060408385031215611d7e57611d7d611838565b5b6000611d8c85828601611a84565b9250506020611d9d85828601611d52565b9150509250929050565b600067ffffffffffffffff821115611dc257611dc1611ae3565b5b602082029050602081019050919050565b600080fd5b600067ffffffffffffffff821115611df357611df2611ae3565b5b611dfc8261194c565b9050602081019050919050565b6000611e1c611e1784611dd8565b611b43565b905082815260208101848484011115611e3857611e37611ade565b5b611e43848285611b8f565b509392505050565b600082601f830112611e6057611e5f611ad9565b5b8135611e70848260208601611e09565b91505092915050565b6000611e8c611e8784611da7565b611b43565b90508083825260208201905060208402830185811115611eaf57611eae611dd3565b5b835b81811015611ef657803567ffffffffffffffff811115611ed457611ed3611ad9565b5b808601611ee18982611e4b565b85526020850194505050602081019050611eb1565b5050509392505050565b600082601f830112611f1557611f14611ad9565b5b8135611f25848260208601611e79565b91505092915050565b60008060408385031215611f4557611f44611838565b5b600083013567ffffffffffffffff811115611f6357611f6261183d565b5b611f6f85828601611f00565b925050602083013567ffffffffffffffff811115611f9057611f8f61183d565b5b611f9c85828601611f00565b9150509250929050565b600081519050919050565b600082825260208201905092915050565b6000819050602082019050919050565b611fdb816117fa565b82525050565b6000611fed8383611fd2565b60208301905092915050565b6000602082019050919050565b600061201182611fa6565b61201b8185611fb1565b935061202683611fc2565b8060005b8381101561205757815161203e8882611fe1565b975061204983611ff9565b92505060018101905061202a565b5085935050505092915050565b6000602082019050818103600083015261207e8184612006565b905092915050565b6000806040838503121561209d5761209c611838565b5b600083013567ffffffffffffffff8111156120bb576120ba61183d565b5b6120c785828601611e4b565b925050602083013567ffffffffffffffff8111156120e8576120e761183d565b5b6120f485828601611e4b565b9150509250929050565b6000806040838503121561211557612114611838565b5b600061212385828601611a84565b925050602061213485828601611a84565b9150509250929050565b7f4e487b7100000000000000000000000000000000000000000000000000000000600052601160045260246000fd5b6000612178826117fa565b9150612183836117fa565b9250828210156121965761219561213e565b5b828203905092915050565b7f4e487b7100000000000000000000000000000000000000000000000000000000600052602260045260246000fd5b600060028204905060018216806121e857607f821691505b602082108114156121fc576121fb6121a1565b5b50919050565b7f54686520696e766f6b65642066756e6374696f6e206f6620455243373231206960008201527f732064697361626c6520666f72207461675265706f732e000000000000000000602082015250565b600061225e603783611908565b915061226982612202565b604082019050919050565b6000602082019050818103600083015261228d81612251565b9050919050565b7f4552433732313a20696e76616c696420746f6b656e2049440000000000000000600082015250565b60006122ca601883611908565b91506122d582612294565b602082019050919050565b600060208201905081810360008301526122f9816122bd565b9050919050565b7f4552433732313a2061646472657373207a65726f206973206e6f74206120766160008201527f6c6964206f776e65720000000000000000000000000000000000000000000000602082015250565b600061235c602983611908565b915061236782612300565b604082019050919050565b6000602082019050818103600083015261238b8161234f565b9050919050565b600081905092915050565b60006123a8826118fd565b6123b28185612392565b93506123c2818560208601611919565b80840191505092915050565b60006123da828561239d565b91506123e6828461239d565b91508190509392505050565b60006123fd826117fa565b9150612408836117fa565b9250827fffffffffffffffffffffffffffffffffffffffffffffffffffffffffffffffff0382111561243d5761243c61213e565b5b828201905092915050565b60008190508160005260206000209050919050565b6000815461246a816121d0565b6124748186611908565b9450600182166000811461248f57600181146124a1576124d4565b60ff19831686526020860193506124d4565b6124aa85612448565b60005b838110156124cc578154818901526001820191506020810190506124ad565b808801955050505b50505092915050565b600060408201905081810360008301526124f7818561245d565b90506125066020830184611804565b9392505050565b7f4e487b7100000000000000000000000000000000000000000000000000000000600052603260045260246000fd5b60006040820190506125516000830185611804565b8181036020830152612563818461195d565b90509392505050565b6000612577826117fa565b91507fffffffffffffffffffffffffffffffffffffffffffffffffffffffffffffffff8214156125aa576125a961213e565b5b600182019050919050565b7f45524337323155524953746f726167653a2055524920736574206f66206e6f6e60008201527f6578697374656e7420746f6b656e000000000000000000000000000000000000602082015250565b6000612611602e83611908565b915061261c826125b5565b604082019050919050565b6000602082019050818103600083015261264081612604565b9050919050565b7f4e487b7100000000000000000000000000000000000000000000000000000000600052601260045260246000fd5b7f4552433732313a207472616e7366657220746f206e6f6e20455243373231526560008201527f63656976657220696d706c656d656e7465720000000000000000000000000000602082015250565b60006126d2603283611908565b91506126dd82612676565b604082019050919050565b60006020820190508181036000830152612701816126c5565b9050919050565b7f4552433732313a206d696e7420746f20746865207a65726f2061646472657373600082015250565b600061273e602083611908565b915061274982612708565b602082019050919050565b6000602082019050818103600083015261276d81612731565b9050919050565b7f4552433732313a20746f6b656e20616c7265616479206d696e74656400000000600082015250565b60006127aa601c83611908565b91506127b582612774565b602082019050919050565b600060208201905081810360008301526127d98161279d565b9050919050565b600081519050919050565b600082825260208201905092915050565b6000612807826127e0565b61281181856127eb565b9350612821818560208601611919565b61282a8161194c565b840191505092915050565b600060808201905061284a6000830187611a43565b6128576020830186611a43565b6128646040830185611804565b818103606083015261287681846127fc565b905095945050505050565b6000815190506128908161186e565b92915050565b6000602082840312156128ac576128ab611838565b5b60006128ba84828501612881565b9150509291505056fea2646970667358221220200aa90726d3dfc3e3b0f3329644de3d45364ddf85be1985bf5bcc3bf1ef754964736f6c63430008090033",
  "linkReferences": {},
  "deployedLinkReferences": {}
}